{
  "_format": "hh-sol-artifact-1",
  "contractName": "SimpleBUFeeRouter",
  "sourceName": "SimpleBUFeeRouter.sol",
  "abi": [
    {
      "inputs": [],
      "stateMutability": "nonpayable",
      "type": "constructor"
    },
    {
      "anonymous": false,
      "inputs": [
        {
          "indexed": false,
          "internalType": "uint256",
          "name": "newFee",
          "type": "uint256"
        }
      ],
      "name": "CreationFeeUpdated",
      "type": "event"
    },
    {
      "anonymous": false,
      "inputs": [
        {
          "indexed": true,
          "internalType": "address",
          "name": "from",
          "type": "address"
        },
        {
          "indexed": false,
          "internalType": "uint256",
          "name": "amount",
          "type": "uint256"
        }
      ],
      "name": "FeeCollected",
      "type": "event"
    },
    {
      "inputs": [],
      "name": "collectFee",
      "outputs": [],
      "stateMutability": "payable",
      "type": "function"
    },
    {
      "inputs": [],
      "name": "creationFee",
      "outputs": [
        {
          "internalType": "uint256",
          "name": "",
          "type": "uint256"
        }
      ],
      "stateMutability": "view",
      "type": "function"
    },
    {
      "inputs": [],
      "name": "owner",
      "outputs": [
        {
          "internalType": "address",
          "name": "",
          "type": "address"
        }
      ],
      "stateMutability": "view",
      "type": "function"
    },
    {
      "inputs": [
        {
          "internalType": "uint256",
          "name": "_fee",
          "type": "uint256"
        }
      ],
      "name": "setCreationFee",
      "outputs": [],
      "stateMutability": "nonpayable",
      "type": "function"
    },
    {
      "inputs": [],
      "name": "withdraw",
      "outputs": [],
      "stateMutability": "nonpayable",
      "type": "function"
    },
    {
      "stateMutability": "payable",
      "type": "receive"
    }
  ],
  "bytecode": "0x6080806040523461003357662386f26fc10000600155600080546001600160a01b0319163317905561026b90816100398239f35b600080fdfe6040608081526004361015610046575b361561001a57600080fd5b513481527f06c5efeff5c320943d265dc4e5f1af95ad523555ce0c1957e367dda5514572df60203392a2005b6000803560e01c80633ccfd60b146101a75780638da5cb5b1461017f578063b7d8622514610124578063d4d5d32a146100ab5763dce0b4e414610089575061000f565b90346100a757816003193601126100a7576020906001549051908152f35b5080fd5b5090816003193601126100a75760015434106100ee57513481527f06c5efeff5c320943d265dc4e5f1af95ad523555ce0c1957e367dda5514572df60203392a280f35b5162461bcd60e51b815260206004820152601060248201526f496e73756666696369656e742066656560801b6044820152606490fd5b5090346100a75760203660031901126100a75760207f88a973fd5506071e0cf878b30898776c47d5250a7ee1e6ee0b36df3b03c7c16a916004359061017360018060a01b0386541633146101f9565b8160015551908152a180f35b5090346100a757816003193601126100a757905490516001600160a01b039091168152602090f35b5090346100a757816003193601126100a7578180808060018060a01b038154166101d28133146101f9565b47908282156101f0575bf1156101e6575080f35b51903d90823e3d90fd5b506108fc6101dc565b1561020057565b60405162461bcd60e51b815260206004820152600d60248201526c2737ba103a34329037bbb732b960991b6044820152606490fdfea264697066735822122063e5c14d8b0ba7748db5495a912d726b2cadddda641d4f2174af39c303e1fd2364736f6c63430008140033",
  "linkReferences": {},
  "deployedLinkReferences": {}
}