{"SimpleBUFeeRouter.sol":{"SimpleBUFeeRouter":{"abi":[{"inputs":[],"stateMutability":"nonpayable","type":"constructor"},{"anonymous":false,"inputs":[{"indexed":false,"internalType":"uint256","name":"newFee","type":"uint256"}],"name":"CreationFeeUpdated","type":"event"},{"anonymous":false,"inputs":[{"indexed":true,"internalType":"address","name":"from","type":"address"},{"indexed":false,"internalType":"uint256","name":"amount","type":"uint256"}],"name":"FeeCollected","type":"event"},{"inputs":[],"name":"collectFee","outputs":[],"stateMutability":"payable","type":"function"},{"inputs":[],"name":"creationFee","outputs":[{"internalType":"uint256","name":"","type":"uint256"}],"stateMutability":"view","type":"function"},{"inputs":[],"name":"owner","outputs":[{"internalType":"address","name":"","type":"address"}],"stateMutability":"view","type":"function"},{"inputs":[{"internalType":"uint256","name":"_fee","type":"uint256"}],"name":"setCreationFee","outputs":[],"stateMutability":"nonpayable","type":"function"},{"inputs":[],"name":"withdraw","outputs":[],"stateMutability":"nonpayable","type":"function"},{"stateMutability":"payable","type":"receive"}],"evm":{"bytecode":{"linkReferences":{},"object":"6080806040523461003357662386f26fc10000600155600080546001600160a01b0319163317905561026b90816100398239f35b600080fdfe6040608081526004361015610046575b361561001a57600080fd5b513481527f06c5efeff5c320943d265dc4e5f1af95ad523555ce0c1957e367dda5514572df60203392a2005b6000803560e01c80633ccfd60b146101a75780638da5cb5b1461017f578063b7d8622514610124578063d4d5d32a146100ab5763dce0b4e414610089575061000f565b90346100a757816003193601126100a7576020906001549051908152f35b5080fd5b5090816003193601126100a75760015434106100ee57513481527f06c5efeff5c320943d265dc4e5f1af95ad523555ce0c1957e367dda5514572df60203392a280f35b5162461bcd60e51b815260206004820152601060248201526f496e73756666696369656e742066656560801b6044820152606490fd5b5090346100a75760203660031901126100a75760207f88a973fd5506071e0cf878b30898776c47d5250a7ee1e6ee0b36df3b03c7c16a916004359061017360018060a01b0386541633146101f9565b8160015551908152a180f35b5090346100a757816003193601126100a757905490516001600160a01b039091168152602090f35b5090346100a757816003193601126100a7578180808060018060a01b038154166101d28133146101f9565b47908282156101f0575bf1156101e6575080f35b51903d90823e3d90fd5b506108fc6101dc565b1561020057565b60405162461bcd60e51b815260206004820152600d60248201526c2737ba103a34329037bbb732b960991b6044820152606490fdfea264697066735822122063e5c14d8b0ba7748db5495a912d726b2cadddda641d4f2174af39c303e1fd2364736f6c63430008140033","opcodes":"PUSH1 0x80 DUP1 PUSH1 0x40 MSTORE CALLVALUE PUSH2 0x33 JUMPI PUSH7 0x2386F26FC10000 PUSH1 0x1 SSTORE PUSH1 0x0 DUP1 SLOAD PUSH1 0x1 PUSH1 0x1 PUSH1 0xA0 SHL SUB NOT AND CALLER OR SWAP1 SSTORE PUSH2 0x26B SWAP1 DUP2 PUSH2 0x39 DUP3 CODECOPY RETURN JUMPDEST PUSH1 0x0 DUP1 REVERT INVALID PUSH1 0x40 PUSH1 0x80 DUP2 MSTORE PUSH1 0x4 CALLDATASIZE LT ISZERO PUSH2 0x46 JUMPI JUMPDEST CALLDATASIZE ISZERO PUSH2 0x1A JUMPI PUSH1 0x0 DUP1 REVERT JUMPDEST MLOAD CALLVALUE DUP2 MSTORE PUSH32 0x6C5EFEFF5C320943D265DC4E5F1AF95AD523555CE0C1957E367DDA5514572DF PUSH1 0x20 CALLER SWAP3 LOG2 STOP JUMPDEST PUSH1 0x0 DUP1 CALLDATALOAD PUSH1 0xE0 SHR DUP1 PUSH4 0x3CCFD60B EQ PUSH2 0x1A7 JUMPI DUP1 PUSH4 0x8DA5CB5B EQ PUSH2 0x17F JUMPI DUP1 PUSH4 0xB7D86225 EQ PUSH2 0x124 JUMPI DUP1 PUSH4 0xD4D5D32A EQ PUSH2 0xAB JUMPI PUSH4 0xDCE0B4E4 EQ PUSH2 0x89 JUMPI POP PUSH2 0xF JUMP JUMPDEST SWAP1 CALLVALUE PUSH2 0xA7 JUMPI DUP2 PUSH1 0x3 NOT CALLDATASIZE ADD SLT PUSH2 0xA7 JUMPI PUSH1 0x20 SWAP1 PUSH1 0x1 SLOAD SWAP1 MLOAD SWAP1 DUP2 MSTORE RETURN JUMPDEST POP DUP1 REVERT JUMPDEST POP SWAP1 DUP2 PUSH1 0x3 NOT CALLDATASIZE ADD SLT PUSH2 0xA7 JUMPI PUSH1 0x1 SLOAD CALLVALUE LT PUSH2 0xEE JUMPI MLOAD CALLVALUE DUP2 MSTORE PUSH32 0x6C5EFEFF5C320943D265DC4E5F1AF95AD523555CE0C1957E367DDA5514572DF PUSH1 0x20 CALLER SWAP3 LOG2 DUP1 RETURN JUMPDEST MLOAD PUSH3 0x461BCD PUSH1 0xE5 SHL DUP2 MSTORE PUSH1 0x20 PUSH1 0x4 DUP3 ADD MSTORE PUSH1 0x10 PUSH1 0x24 DUP3 ADD MSTORE PUSH16 0x496E73756666696369656E7420666565 PUSH1 0x80 SHL PUSH1 0x44 DUP3 ADD MSTORE PUSH1 0x64 SWAP1 REVERT JUMPDEST POP SWAP1 CALLVALUE PUSH2 0xA7 JUMPI PUSH1 0x20 CALLDATASIZE PUSH1 0x3 NOT ADD SLT PUSH2 0xA7 JUMPI PUSH1 0x20 PUSH32 0x88A973FD5506071E0CF878B30898776C47D5250A7EE1E6EE0B36DF3B03C7C16A SWAP2 PUSH1 0x4 CALLDATALOAD SWAP1 PUSH2 0x173 PUSH1 0x1 DUP1 PUSH1 0xA0 SHL SUB DUP7 SLOAD AND CALLER EQ PUSH2 0x1F9 JUMP JUMPDEST DUP2 PUSH1 0x1 SSTORE MLOAD SWAP1 DUP2 MSTORE LOG1 DUP1 RETURN JUMPDEST POP SWAP1 CALLVALUE PUSH2 0xA7 JUMPI DUP2 PUSH1 0x3 NOT CALLDATASIZE ADD SLT PUSH2 0xA7 JUMPI SWAP1 SLOAD SWAP1 MLOAD PUSH1 0x1 PUSH1 0x1 PUSH1 0xA0 SHL SUB SWAP1 SWAP2 AND DUP2 MSTORE PUSH1 0x20 SWAP1 RETURN JUMPDEST POP SWAP1 CALLVALUE PUSH2 0xA7 JUMPI DUP2 PUSH1 0x3 NOT CALLDATASIZE ADD SLT PUSH2 0xA7 JUMPI DUP2 DUP1 DUP1 DUP1 PUSH1 0x1 DUP1 PUSH1 0xA0 SHL SUB DUP2 SLOAD AND PUSH2 0x1D2 DUP2 CALLER EQ PUSH2 0x1F9 JUMP JUMPDEST SELFBALANCE SWAP1 DUP3 DUP3 ISZERO PUSH2 0x1F0 JUMPI JUMPDEST CALL ISZERO PUSH2 0x1E6 JUMPI POP DUP1 RETURN JUMPDEST MLOAD SWAP1 RETURNDATASIZE SWAP1 DUP3 RETURNDATACOPY RETURNDATASIZE SWAP1 REVERT JUMPDEST POP PUSH2 0x8FC PUSH2 0x1DC JUMP JUMPDEST ISZERO PUSH2 0x200 JUMPI JUMP JUMPDEST PUSH1 0x40 MLOAD PUSH3 0x461BCD PUSH1 0xE5 SHL DUP2 MSTORE PUSH1 0x20 PUSH1 0x4 DUP3 ADD MSTORE PUSH1 0xD PUSH1 0x24 DUP3 ADD MSTORE PUSH13 0x2737BA103A34329037BBB732B9 PUSH1 0x99 SHL PUSH1 0x44 DUP3 ADD MSTORE PUSH1 0x64 SWAP1 REVERT INVALID LOG2 PUSH5 0x6970667358 0x22 SLT KECCAK256 PUSH4 0xE5C14D8B SIGNEXTEND 0xA7 PUSH21 0x8DB5495A912D726B2CADDDDA641D4F2174AF39C303 0xE1 REVERT 0x23 PUSH5 0x736F6C6343 STOP ADDMOD EQ STOP CALLER "},"methodIdentifiers":{"collectFee()":"d4d5d32a","creationFee()":"dce0b4e4","owner()":"8da5cb5b","setCreationFee(uint256)":"b7d86225","withdraw()":"3ccfd60b"}}}}}