{
  "_format": "hh-sol-artifact-1",
  "contractName": "SimpleResearchDAO",
  "sourceName": "SimpleResearchDAO.sol",
  "abi": [
    {
      "inputs": [
        {
          "internalType": "string",
          "name": "_tokenName",
          "type": "string"
        },
        {
          "internalType": "string",
          "name": "_tokenSymbol",
          "type": "string"
        },
        {
          "internalType": "string",
          "name": "_daoName",
          "type": "string"
        },
        {
          "internalType": "string",
          "name": "_description",
          "type": "string"
        },
        {
          "internalType": "string",
          "name": "_researchFocus",
          "type": "string"
        },
        {
          "internalType": "uint256",
          "name": "_initialSupply",
          "type": "uint256"
        },
        {
          "internalType": "uint256",
          "name": "_proposalThreshold",
          "type": "uint256"
        },
        {
          "internalType": "uint256",
          "name": "_votingDuration",
          "type": "uint256"
        },
        {
          "internalType": "uint256",
          "name": "_quorumPercentage",
          "type": "uint256"
        },
        {
          "internalType": "address",
          "name": "_creator",
          "type": "address"
        }
      ],
      "stateMutability": "nonpayable",
      "type": "constructor"
    },
    {
      "anonymous": false,
      "inputs": [
        {
          "indexed": true,
          "internalType": "address",
          "name": "from",
          "type": "address"
        },
        {
          "indexed": false,
          "internalType": "uint256",
          "name": "amount",
          "type": "uint256"
        }
      ],
      "name": "FundsReceived",
      "type": "event"
    },
    {
      "anonymous": false,
      "inputs": [
        {
          "indexed": true,
          "internalType": "address",
          "name": "member",
          "type": "address"
        },
        {
          "indexed": false,
          "internalType": "string",
          "name": "name",
          "type": "string"
        },
        {
          "indexed": false,
          "internalType": "string",
          "name": "role",
          "type": "string"
        }
      ],
      "name": "MemberJoined",
      "type": "event"
    },
    {
      "anonymous": false,
      "inputs": [
        {
          "indexed": true,
          "internalType": "uint256",
          "name": "proposalId",
          "type": "uint256"
        },
        {
          "indexed": true,
          "internalType": "address",
          "name": "proposer",
          "type": "address"
        },
        {
          "indexed": false,
          "internalType": "string",
          "name": "title",
          "type": "string"
        }
      ],
      "name": "ProposalCreated",
      "type": "event"
    },
    {
      "anonymous": false,
      "inputs": [
        {
          "indexed": true,
          "internalType": "uint256",
          "name": "proposalId",
          "type": "uint256"
        },
        {
          "indexed": false,
          "internalType": "bool",
          "name": "approved",
          "type": "bool"
        }
      ],
      "name": "ProposalExecuted",
      "type": "event"
    },
    {
      "anonymous": false,
      "inputs": [
        {
          "indexed": true,
          "internalType": "uint256",
          "name": "proposalId",
          "type": "uint256"
        },
        {
          "indexed": true,
          "internalType": "address",
          "name": "voter",
          "type": "address"
        },
        {
          "indexed": false,
          "internalType": "bool",
          "name": "support",
          "type": "bool"
        },
        {
          "indexed": false,
          "internalType": "uint256",
          "name": "votes",
          "type": "uint256"
        }
      ],
      "name": "VoteCast",
      "type": "event"
    },
    {
      "inputs": [
        {
          "internalType": "uint256",
          "name": "",
          "type": "uint256"
        }
      ],
      "name": "activeProjects",
      "outputs": [
        {
          "internalType": "uint256",
          "name": "",
          "type": "uint256"
        }
      ],
      "stateMutability": "view",
      "type": "function"
    },
    {
      "inputs": [
        {
          "internalType": "uint256",
          "name": "",
          "type": "uint256"
        }
      ],
      "name": "activeProposals",
      "outputs": [
        {
          "internalType": "uint256",
          "name": "",
          "type": "uint256"
        }
      ],
      "stateMutability": "view",
      "type": "function"
    },
    {
      "inputs": [
        {
          "internalType": "address",
          "name": "",
          "type": "address"
        }
      ],
      "name": "balances",
      "outputs": [
        {
          "internalType": "uint256",
          "name": "",
          "type": "uint256"
        }
      ],
      "stateMutability": "view",
      "type": "function"
    },
    {
      "inputs": [
        {
          "internalType": "string",
          "name": "_title",
          "type": "string"
        },
        {
          "internalType": "string",
          "name": "_description",
          "type": "string"
        },
        {
          "internalType": "string",
          "name": "_researchArea",
          "type": "string"
        },
        {
          "internalType": "uint256",
          "name": "_fundingRequested",
          "type": "uint256"
        }
      ],
      "name": "createProposal",
      "outputs": [
        {
          "internalType": "uint256",
          "name": "",
          "type": "uint256"
        }
      ],
      "stateMutability": "nonpayable",
      "type": "function"
    },
    {
      "inputs": [],
      "name": "creator",
      "outputs": [
        {
          "internalType": "address",
          "name": "",
          "type": "address"
        }
      ],
      "stateMutability": "view",
      "type": "function"
    },
    {
      "inputs": [],
      "name": "daoName",
      "outputs": [
        {
          "internalType": "string",
          "name": "",
          "type": "string"
        }
      ],
      "stateMutability": "view",
      "type": "function"
    },
    {
      "inputs": [],
      "name": "description",
      "outputs": [
        {
          "internalType": "string",
          "name": "",
          "type": "string"
        }
      ],
      "stateMutability": "view",
      "type": "function"
    },
    {
      "inputs": [],
      "name": "fundDAO",
      "outputs": [],
      "stateMutability": "payable",
      "type": "function"
    },
    {
      "inputs": [],
      "name": "getActiveProjects",
      "outputs": [
        {
          "internalType": "uint256[]",
          "name": "",
          "type": "uint256[]"
        }
      ],
      "stateMutability": "view",
      "type": "function"
    },
    {
      "inputs": [],
      "name": "getActiveProposals",
      "outputs": [
        {
          "internalType": "uint256[]",
          "name": "",
          "type": "uint256[]"
        }
      ],
      "stateMutability": "view",
      "type": "function"
    },
    {
      "inputs": [],
      "name": "getDAOInfo",
      "outputs": [
        {
          "internalType": "string",
          "name": "",
          "type": "string"
        },
        {
          "internalType": "string",
          "name": "",
          "type": "string"
        },
        {
          "internalType": "string",
          "name": "",
          "type": "string"
        },
        {
          "internalType": "string",
          "name": "",
          "type": "string"
        },
        {
          "internalType": "string",
          "name": "",
          "type": "string"
        },
        {
          "internalType": "uint256",
          "name": "",
          "type": "uint256"
        },
        {
          "internalType": "uint256",
          "name": "",
          "type": "uint256"
        },
        {
          "internalType": "uint256",
          "name": "",
          "type": "uint256"
        },
        {
          "internalType": "uint256",
          "name": "",
          "type": "uint256"
        },
        {
          "internalType": "uint256",
          "name": "",
          "type": "uint256"
        },
        {
          "internalType": "uint256[]",
          "name": "",
          "type": "uint256[]"
        },
        {
          "internalType": "uint256[]",
          "name": "",
          "type": "uint256[]"
        },
        {
          "internalType": "uint256",
          "name": "",
          "type": "uint256"
        },
        {
          "internalType": "address[]",
          "name": "",
          "type": "address[]"
        }
      ],
      "stateMutability": "view",
      "type": "function"
    },
    {
      "inputs": [],
      "name": "getMemberAddresses",
      "outputs": [
        {
          "internalType": "address[]",
          "name": "",
          "type": "address[]"
        }
      ],
      "stateMutability": "view",
      "type": "function"
    },
    {
      "inputs": [
        {
          "internalType": "uint256",
          "name": "_proposalId",
          "type": "uint256"
        }
      ],
      "name": "getProposal",
      "outputs": [
        {
          "components": [
            {
              "internalType": "uint256",
              "name": "id",
              "type": "uint256"
            },
            {
              "internalType": "address",
              "name": "proposer",
              "type": "address"
            },
            {
              "internalType": "string",
              "name": "title",
              "type": "string"
            },
            {
              "internalType": "string",
              "name": "description",
              "type": "string"
            },
            {
              "internalType": "string",
              "name": "researchArea",
              "type": "string"
            },
            {
              "internalType": "uint256",
              "name": "fundingRequested",
              "type": "uint256"
            },
            {
              "internalType": "uint256",
              "name": "votesFor",
              "type": "uint256"
            },
            {
              "internalType": "uint256",
              "name": "votesAgainst",
              "type": "uint256"
            },
            {
              "internalType": "uint256",
              "name": "deadline",
              "type": "uint256"
            },
            {
              "internalType": "bool",
              "name": "executed",
              "type": "bool"
            },
            {
              "internalType": "bool",
              "name": "approved",
              "type": "bool"
            }
          ],
          "internalType": "struct SimpleResearchDAO.Proposal",
          "name": "",
          "type": "tuple"
        }
      ],
      "stateMutability": "view",
      "type": "function"
    },
    {
      "inputs": [
        {
          "internalType": "string",
          "name": "_name",
          "type": "string"
        },
        {
          "internalType": "string",
          "name": "_role",
          "type": "string"
        }
      ],
      "name": "joinDAO",
      "outputs": [],
      "stateMutability": "nonpayable",
      "type": "function"
    },
    {
      "inputs": [
        {
          "internalType": "uint256",
          "name": "",
          "type": "uint256"
        }
      ],
      "name": "memberAddresses",
      "outputs": [
        {
          "internalType": "address",
          "name": "",
          "type": "address"
        }
      ],
      "stateMutability": "view",
      "type": "function"
    },
    {
      "inputs": [
        {
          "internalType": "address",
          "name": "",
          "type": "address"
        }
      ],
      "name": "members",
      "outputs": [
        {
          "internalType": "bool",
          "name": "",
          "type": "bool"
        }
      ],
      "stateMutability": "view",
      "type": "function"
    },
    {
      "inputs": [],
      "name": "proposalCount",
      "outputs": [
        {
          "internalType": "uint256",
          "name": "",
          "type": "uint256"
        }
      ],
      "stateMutability": "view",
      "type": "function"
    },
    {
      "inputs": [],
      "name": "proposalThreshold",
      "outputs": [
        {
          "internalType": "uint256",
          "name": "",
          "type": "uint256"
        }
      ],
      "stateMutability": "view",
      "type": "function"
    },
    {
      "inputs": [
        {
          "internalType": "uint256",
          "name": "",
          "type": "uint256"
        }
      ],
      "name": "proposals",
      "outputs": [
        {
          "internalType": "uint256",
          "name": "id",
          "type": "uint256"
        },
        {
          "internalType": "address",
          "name": "proposer",
          "type": "address"
        },
        {
          "internalType": "string",
          "name": "title",
          "type": "string"
        },
        {
          "internalType": "string",
          "name": "description",
          "type": "string"
        },
        {
          "internalType": "string",
          "name": "researchArea",
          "type": "string"
        },
        {
          "internalType": "uint256",
          "name": "fundingRequested",
          "type": "uint256"
        },
        {
          "internalType": "uint256",
          "name": "votesFor",
          "type": "uint256"
        },
        {
          "internalType": "uint256",
          "name": "votesAgainst",
          "type": "uint256"
        },
        {
          "internalType": "uint256",
          "name": "deadline",
          "type": "uint256"
        },
        {
          "internalType": "bool",
          "name": "executed",
          "type": "bool"
        },
        {
          "internalType": "bool",
          "name": "approved",
          "type": "bool"
        }
      ],
      "stateMutability": "view",
      "type": "function"
    },
    {
      "inputs": [],
      "name": "quorumPercentage",
      "outputs": [
        {
          "internalType": "uint256",
          "name": "",
          "type": "uint256"
        }
      ],
      "stateMutability": "view",
      "type": "function"
    },
    {
      "inputs": [],
      "name": "researchFocus",
      "outputs": [
        {
          "internalType": "string",
          "name": "",
          "type": "string"
        }
      ],
      "stateMutability": "view",
      "type": "function"
    },
    {
      "inputs": [],
      "name": "tokenName",
      "outputs": [
        {
          "internalType": "string",
          "name": "",
          "type": "string"
        }
      ],
      "stateMutability": "view",
      "type": "function"
    },
    {
      "inputs": [],
      "name": "tokenSymbol",
      "outputs": [
        {
          "internalType": "string",
          "name": "",
          "type": "string"
        }
      ],
      "stateMutability": "view",
      "type": "function"
    },
    {
      "inputs": [],
      "name": "totalSupply",
      "outputs": [
        {
          "internalType": "uint256",
          "name": "",
          "type": "uint256"
        }
      ],
      "stateMutability": "view",
      "type": "function"
    },
    {
      "inputs": [],
      "name": "votingDuration",
      "outputs": [
        {
          "internalType": "uint256",
          "name": "",
          "type": "uint256"
        }
      ],
      "stateMutability": "view",
      "type": "function"
    },
    {
      "stateMutability": "payable",
      "type": "receive"
    }
  ],
  "bytecode": "0x6080604052346200092a5762002269803803806200001d816200092f565b928339810190610140818303126200092a5780516001600160401b0381116200092a57826200004e91830162000955565b60208201519091906001600160401b0381116200092a57836200007391830162000955565b60408201519091906001600160401b0381116200092a57846200009891830162000955565b60608201519092906001600160401b0381116200092a5785620000bd91840162000955565b608083015190956001600160401b0382116200092a57620000e091840162000955565b9260a08301519560c08401519160e0850151936101206101008701519601519760018060a01b0389168099036200092a578051906001600160401b038211620005415760005490600182811c921680156200091f575b6020831014620006255781601f849311620008bc575b50602090601f8311600114620008405760009262000834575b50508160011b916000199060031b1c1916176000555b8051906001600160401b038211620005415760015490600182811c9216801562000829575b6020831014620006255781601f849311620007c5575b50602090601f831160011462000747576000926200073b575b50508160011b916000199060031b1c1916176001555b8051906001600160401b038211620005415760025490600182811c9216801562000730575b6020831014620006255781601f849311620006cc575b50602090601f8311600114620006525760009262000646575b50508160011b916000199060031b1c1916176002555b80516001600160401b0381116200054157600391825490600182811c921680156200063b575b6020831014620006255781601f849311620005cd575b50602090601f8311600114620005635760009262000557575b50508160011b9160001990841b1c19161781555b8451906001600160401b03821162000541576004958654600181811c9116801562000536575b602082101462000521579081601f85949311620004c7575b50602090601f841160011462000459576000936200044d575b50508260011b92600019911b1c19161784555b670de0b6b3a76400009081870296808804831490151715620004385786600555818102918183041490151715620004235760065560075560085560018060a01b0319928284600954161760095582600052600a602052604060002055600b6020526040600020600160ff19825416179055600c5490680100000000000000008210156200040e576001820180600c55821015620003f95750600c6000527fdf6966c971051c3d54ec59162606531493a51404a002842f56009d7e5cf4a8c70180549092161790556040516118419081620009c88239f35b603290634e487b7160e01b6000525260246000fd5b604190634e487b7160e01b6000525260246000fd5b601184634e487b7160e01b6000525260246000fd5b601185634e487b7160e01b6000525260246000fd5b0151915038806200030f565b6000898152602081209450601f198616905b818110620004ae57509085600196959493921062000493575b50505050811b01845562000322565b01519060f884600019921b161c191690553880808062000484565b929460206001819288860151815501960193016200046b565b90919250876000526020600020601f850160051c8101916020861062000516575b90601f86959493920160051c01905b818110620005065750620002f6565b60008155859450600101620004f7565b9091508190620004e8565b602288634e487b7160e01b6000525260246000fd5b90607f1690620002de565b634e487b7160e01b600052604160045260246000fd5b015190503880620002a4565b6000858152602081209350601f198516905b818110620005b457509084600195949392106200059b575b505050811b018155620002b8565b015160001983861b60f8161c191690553880806200058d565b9293602060018192878601518155019501930162000575565b909150836000526020600020601f840160051c810191602085106200061a575b90601f859493920160051c01905b8181106200060a57506200028b565b60008155849350600101620005fb565b9091508190620005ed565b634e487b7160e01b600052602260045260246000fd5b91607f169162000275565b01519050388062000239565b60026000908152600080516020620022098339815191529350601f198516905b818110620006b3575090846001959493921062000699575b505050811b016002556200024f565b015160001960f88460031b161c191690553880806200068a565b9293602060018192878601518155019501930162000672565b600260005290915060008051602062002209833981519152601f840160051c8101916020851062000725575b90601f859493920160051c01905b81811062000715575062000220565b6000815584935060010162000706565b9091508190620006f8565b91607f16916200020a565b015190503880620001cf565b6001600090815293506000805160206200224983398151915291905b601f1984168510620007a9576001945083601f198116106200078f575b505050811b01600155620001e5565b015160001960f88460031b161c1916905538808062000780565b8181015183556020948501946001909301929091019062000763565b600160005290915060008051602062002249833981519152601f840160051c810191602085106200081e575b90601f859493920160051c01905b8181106200080e5750620001b6565b60008155849350600101620007ff565b9091508190620007f1565b91607f1691620001a0565b01519050388062000165565b600080805293506000805160206200222983398151915291905b601f1984168510620008a0576001945083601f1981161062000886575b505050811b016000556200017b565b015160001960f88460031b161c1916905538808062000877565b818101518355602094850194600190930192909101906200085a565b6000805290915060008051602062002229833981519152601f840160051c8101916020851062000914575b90601f859493920160051c01905b8181106200090457506200014c565b60008155849350600101620008f5565b9091508190620008e7565b91607f169162000136565b600080fd5b6040519190601f01601f191682016001600160401b038111838210176200054157604052565b919080601f840112156200092a5782516001600160401b03811162000541576020906200098b601f8201601f191683016200092f565b928184528282870101116200092a5760005b818110620009b357508260009394955001015290565b85810183015184820184015282016200099d56fe60806040526004361015610047575b361561001957600080fd5b6040513481527f8e47b87b0ef542cdfa1659c551d88bad38aa7f452d2bbb349ab7530dfec8be8f60203392a2005b60003560e01c8063013cf08b1461107557806302d05d3f1461104c57806308ae4b0c146110095780630a81c7ea14610fed578063132002fc14610fcf57806318160ddd14610fb157806327e235e314610f7357806329cfce4114610f4357806342e3e4f714610dbe5780634897693614610da25780634c15676b146107455780634fa76ec9146107275780635584c4f91461069b57806361163379146106215780636c02a931146106055780637284e416146105e95780637b61c320146105b9578063b58131b01461059b578063c7b24eb614610448578063c7f758a814610280578063cc4e62991461023e578063da35c66414610220578063da367a6d146101cf578063e40824f8146101985763e77056a10361000e57346101935760003660031901126101935761018f61017b611795565b604051918291602083526020830190611610565b0390f35b600080fd5b3461019357602036600319011261019357600435600f54811015610193576101c16020916116a4565b90546040519160031b1c8152f35b34610193576020366003190112610193576004356010548110156101935760209060106000527f1b6847dc741a1b0cd08d278845f9d819d87b734759afb55fe2de5cb82a9ae6720154604051908152f35b34610193576000366003190112610193576020600e54604051908152f35b3461019357602036600319011261019357600435600c54811015610193576102676020916116f1565b905460405160039290921b1c6001600160a01b03168152f35b346101935760203660031901126101935760006101406040516102a28161119d565b82815282602082015260606040820152606080820152606060808201528260a08201528260c08201528260e082015282610100820152826101208201520152600435600052600d602052604060002060ff6009604051926103028461119d565b8054845260018101546001600160a01b03166020850152610325600282016114f8565b6040850152610336600382016114f8565b6060850152610347600482016114f8565b6080850152600581015460a0850152600681015460c0850152600781015460e085015260088101546101008501520154818116151561012084015260081c1615156101408201526040518091602082528051602083015260018060a01b03602082015116604083015260408101516101406104046103d36101609384606088015261018087019061159c565b6103ef606086015191601f1992838983030160808a015261159c565b906080860151908783030160a088015261159c565b9260a081015160c086015260c081015160e086015260e081015161010086015261010081015161012086015261012081015115158286015201511515908301520390f35b346101935760403660031901126101935767ffffffffffffffff6004358181116101935761047a90369060040161164d565b906024359081116101935761049390369060040161164d565b9033600052600b60205260ff604060002054166105635733600052600b6020526040600020600160ff19825416179055600c54600160401b81101561054d577f5d154ef6a21fe98ae854728bec9ec45c1ac747c534c07d7db578521ce132aaa2916105078260016105399401600c556116f1565b81546001600160a01b0360039290921b91821b19163390911b179055604080518181529283926105489284019061159c565b8281036020840152339561159c565b0390a2005b634e487b7160e01b600052604160045260246000fd5b60405162461bcd60e51b815260206004820152601060248201526f20b63932b0b23c90309036b2b6b132b960811b6044820152606490fd5b34610193576000366003190112610193576020600654604051908152f35b346101935760003660031901126101935761018f6105d5611330565b60405191829160208352602083019061159c565b346101935760003660031901126101935761018f6105d561145f565b346101935760003660031901126101935761018f6105d561129a565b6000366003190112610193573415610661576040513481527f8e47b87b0ef542cdfa1659c551d88bad38aa7f452d2bbb349ab7530dfec8be8f60203392a2005b60405162461bcd60e51b815260206004820152601260248201527109aeae6e840e6cadcc840e6dedaca408aa8960731b6044820152606490fd5b346101935760003660031901126101935760405180600f54808252826020809301600f6000527f8d1108e10bcb7c27dddfc02ed9d693a074039d026cf4ea4240b40f7d581ac8029260005b85828210610711575050506106fd925003836111ba565b61018f6040519282849384528301906115dc565b85548452600195860195889550930192016106e6565b34610193576000366003190112610193576020600854604051908152f35b346101935760803660031901126101935760043567ffffffffffffffff81116101935761077690369060040161164d565b60243567ffffffffffffffff81116101935761079690369060040161164d565b60443567ffffffffffffffff8111610193576107b690369060040161164d565b9033600052600b60205260ff6040600020541615610d515733600052600a60205260406000205460065411610d0d57600e54916000198314610cf75760018301600e55600754906201518091828102928184041490151715610cf7578142014211610cf757604051926108288461119d565b8484523360208501528560408501526060840152608083015260643560a0830152600060c0830152600060e083015242016101008201526000610120820152600061014082015281600052600d6020526040600020815181556001810160018060a01b036020840151166bffffffffffffffffffffffff60a01b825416179055604082015180519067ffffffffffffffff821161054d5781906108ce6002850154611163565b601f8111610ca4575b50602090601f8311600114610c3257600092610c27575b50508160011b916000199060031b1c19161760028201555b606082015180519067ffffffffffffffff821161054d57819061092c6003850154611163565b601f8111610bd4575b50602090601f8311600114610b6257600092610b57575b50508160011b916000199060031b1c19161760038201555b608082015180519067ffffffffffffffff821161054d576109886004840154611163565b601f8111610b10575b50602090601f8311600114610a9d57600993929160009183610a92575b50508160011b916000199060031b1c19161760048201555b60a0830151600582015560c0830151600682015560e083015160078201556101008301516008820155019061012081015115159060ff61ff006101408554930151151560081b1692169061ffff191617179055600f5491600160401b83101561054d57610a3b83600160209501600f556116a4565b81549060031b9084821b91600019901b1916179055817f7585f467599d0f008985f231af99293be388626ac16ca59505c2f8f88969cd6360405185815280610a8733958883019061159c565b0390a3604051908152f35b0151905087806109ae565b906004840160005260206000209160005b601f1985168110610af8575091839160019360099695601f19811610610adf575b505050811b0160048201556109c6565b015160001960f88460031b161c19169055878080610acf565b91926020600181928685015181550194019201610aae565b600484016000526020600020601f840160051c810160208510610b50575b601f830160051c82018110610b44575050610991565b60008155600101610b2e565b5080610b2e565b01519050868061094c565b9250600384016000526020600020906000935b601f1984168510610bb9576001945083601f19811610610ba0575b505050811b016003820155610964565b015160001960f88460031b161c19169055868080610b90565b81810151835560209485019460019093019290910190610b75565b909150600384016000526020600020601f840160051c810160208510610c20575b90849392915b601f830160051c82018110610c11575050610935565b60008155859450600101610bfb565b5080610bf5565b0151905086806108ee565b9250600284016000526020600020906000935b601f1984168510610c89576001945083601f19811610610c70575b505050811b016002820155610906565b015160001960f88460031b161c19169055868080610c60565b81810151835560209485019460019093019290910190610c45565b909150600284016000526020600020601f840160051c810160208510610cf0575b90849392915b601f830160051c82018110610ce15750506108d7565b60008155859450600101610ccb565b5080610cc5565b634e487b7160e01b600052601160045260246000fd5b606460405162461bcd60e51b815260206004820152602060248201527f496e73756666696369656e7420746f6b656e7320666f722070726f706f73616c6044820152fd5b60405162461bcd60e51b8152602060048201526024808201527f4d7573742062652061206d656d62657220746f206372656174652070726f706f60448201526373616c7360e01b6064820152608490fd5b346101935760003660031901126101935761018f6105d56113c6565b34610193576000366003190112610193576005546006549060075491600854904793600c5491610dec61129a565b94610df5611330565b96610dfe6113c6565b95610e0761145f565b94610e106111dc565b94604051958680976020600f54918281520190600f6000527f8d1108e10bcb7c27dddfc02ed9d693a074039d026cf4ea4240b40f7d581ac8029060005b818110610f2a5750505003610e6290886111ba565b610e6a611728565b97610e73611795565b9a6040519d8e809e6101c08083528201610e8c9161159c565b908082039060200152610e9e9161159c565b8d810360408f0152610eaf9161159c565b8c810360608e0152610ec09161159c565b8b810360808d0152610ed19161159c565b9460a08b015260c08a015260e0890152610100880152610120870152858103610140870152610eff916115dc565b848103610160860152610f11916115dc565b906101808401528281036101a084015261018f91611610565b825484528b945060209093019260019283019201610e4d565b346101935760003660031901126101935761018f610f5f611728565b6040519182916020835260208301906115dc565b34610193576020366003190112610193576004356001600160a01b0381169081900361019357600052600a6020526020604060002054604051908152f35b34610193576000366003190112610193576020600554604051908152f35b34610193576000366003190112610193576020600754604051908152f35b346101935760003660031901126101935761018f6105d56111dc565b34610193576020366003190112610193576004356001600160a01b0381169081900361019357600052600b602052602060ff604060002054166040519015158152f35b34610193576000366003190112610193576009546040516001600160a01b039091168152602090f35b3461019357602036600319011261019357600435600052600d6020526020604060002080549060ff60018060a01b036001830154166110b6600284016114f8565b926110c3600382016114f8565b936110d0600483016114f8565b94611132600584015496611124600686015493611116600788015496600960088a0154990154996040519e8f9e8f908152015260408d61016091829101528d019061159c565b908b820360608d015261159c565b9089820360808b015261159c565b9560a088015260c087015260e0860152610100850152818116151561012085015260081c1615156101408301520390f35b90600182811c92168015611193575b602083101461117d57565b634e487b7160e01b600052602260045260246000fd5b91607f1691611172565b610160810190811067ffffffffffffffff82111761054d57604052565b90601f8019910116810190811067ffffffffffffffff82111761054d57604052565b60405190600082600454916111f083611163565b808352926001908181169081156112785750600114611219575b50611217925003836111ba565b565b6004600090815291507f8a35acfbc15ff81a39ae7d344fd709f28e8600b4aa8c65c6b64bfe7fe36bd19b5b84831061125d575061121793505081016020013861120a565b81935090816020925483858a01015201910190918592611244565b90506020925061121794915060ff191682840152151560051b8201013861120a565b604051906000828154916112ad83611163565b8083529260019081811690811561127857506001146112d35750611217925003836111ba565b600080805291507f290decd9548b62a8d60345a988386fc84ba6bc95484008f6362f93160ef3e5635b848310611315575061121793505081016020013861120a565b81935090816020925483858a010152019101909185926112fc565b6040519060008260019182549261134684611163565b8084529381811690811561127857506001146113695750611217925003836111ba565b600081815291507fb10e2d527612073b26eecdfd717e6a320cf44b4afac2b0732d9fcbe2b7fa0cf65b8483106113ab575061121793505081016020013861120a565b81935090816020925483858a01015201910190918592611392565b60405190600082600254916113da83611163565b8083529260019081811690811561127857506001146114005750611217925003836111ba565b6002600090815291507f405787fa12a823e0f2b7631cc41b3ba8828b3321ca811111fa75cd3aa3bb5ace5b848310611444575061121793505081016020013861120a565b81935090816020925483858a0101520191019091859261142b565b604051906000826003549161147383611163565b8083529260019081811690811561127857506001146114995750611217925003836111ba565b6003600090815291507fc2575a0e9e593c00f959f8c92f12db2869c3395a3b0502d05e2516446f71f85b5b8483106114dd575061121793505081016020013861120a565b81935090816020925483858a010152019101909185926114c4565b906040519182600082549261150c84611163565b9081845260019485811690816000146115795750600114611536575b5050611217925003836111ba565b9093915060005260209081600020936000915b81831061156157505061121793508201013880611528565b85548884018501529485019487945091830191611549565b91505061121794506020925060ff191682840152151560051b8201013880611528565b919082519283825260005b8481106115c8575050826000602080949584010152601f8019910116010190565b6020818301810151848301820152016115a7565b90815180825260208080930193019160005b8281106115fc575050505090565b8351855293810193928101926001016115ee565b90815180825260208080930193019160005b828110611630575050505090565b83516001600160a01b031685529381019392810192600101611622565b81601f820112156101935780359067ffffffffffffffff821161054d5760405192611682601f8401601f1916602001856111ba565b8284526020838301011161019357816000926020809301838601378301015290565b600f548110156116db57600f6000527f8d1108e10bcb7c27dddfc02ed9d693a074039d026cf4ea4240b40f7d581ac8020190600090565b634e487b7160e01b600052603260045260246000fd5b600c548110156116db57600c6000527fdf6966c971051c3d54ec59162606531493a51404a002842f56009d7e5cf4a8c70190600090565b60405190601054808352826020918282019060106000527f1b6847dc741a1b0cd08d278845f9d819d87b734759afb55fe2de5cb82a9ae672936000905b82821061177b57505050611217925003836111ba565b855484526001958601958895509381019390910190611765565b60405190600c548083528260209182820190600c6000527fdf6966c971051c3d54ec59162606531493a51404a002842f56009d7e5cf4a8c7936000905b8282106117e857505050611217925003836111ba565b85546001600160a01b0316845260019586019588955093810193909101906117d256fea2646970667358221220e0d0e0df50b5a6c79cc016abcc3ac47c5416fe7fe09e01b9c6e95814dfc5620f64736f6c63430008140033405787fa12a823e0f2b7631cc41b3ba8828b3321ca811111fa75cd3aa3bb5ace290decd9548b62a8d60345a988386fc84ba6bc95484008f6362f93160ef3e563b10e2d527612073b26eecdfd717e6a320cf44b4afac2b0732d9fcbe2b7fa0cf6",
  "linkReferences": {},
  "deployedLinkReferences": {}
}